:1000000000100020E90B00001F0C0000210C000074
:10001000230C0000250C0000270C00001D0C000024
:100020001D0C00001D0C00001D0C0000290C000020
:100030002B0C00001D0C00002D0C00007D040000A6
:10004000310C0000330C0000350C0000370C0000B0
:10005000390C00003B0C00003D0C00003F0C000080
:10006000410C0000430C0000450C0000470C000050
:10007000490C00004B0C00004D0C00004F0C000020
:10008000510C0000530C0000550C0000570C0000F0
:10009000590C00005B0C00005D0C0000000000002B
:1000A0000000000000000000000000000000000050
:1000B0000000000000000000000000000000000040
:1000C0000000000000000000000000000000000030
:1000D0000000000000000000000000000000000020
:1000E0000000000000000000000000000000000010
:1000F0000000000000000000000000000000000000
:1001000010B5054C237833B9044B13B10448AFF351
:1001100000800123237010BD70000020000000004B
:10012000A810000008B5064B1BB106480649AFF3FE
:1001300000800648036813B1054B03B1984708BD1A
:1001400000000000A81000007400002070000020D3
:1001500000000000154B002B08BF134B9D46A3F574
:10016000803A00218B460F461348144A121A00F0B9
:10017000F5FE0F4B002B00D098470E4B002B00D004
:1001800098470020002104000D000D48002802D0EF
:100190000C48AFF3008000F0BBFE2000290000F007
:1001A0007BF900F0A1FE00BF000008000010002055
:1001B00000000000000000007000002094000020FB
:1001C000000000000000000080B483B000AF0346D0
:1001D0003960FB7197F90730002B0BDA0D49FB7979
:1001E00003F00F03043B3A68D2B25201D2B20B447F
:1001F0001A7609E0084997F907303A68D2B25201F5
:10020000D2B20B4483F800230C37BD465DF8047B63
:10021000704700BF00ED00E000E100E080B582B073
:1002200000AF78607B68013BB3F1807F01D301238D
:100230000FE00A4B7A68013A5A604FF0FF3007210D
:10024000FFF7C2FF054B00229A60044B07221A6099
:10025000002318460837BD4680BD00BF10E000E00F
:1002600080B400AFBD465DF8047B704780B582B0B6
:1002700000AF03463960FB71FB79052B02D83B6860
:100280000F2B04D90A4840F2DF1100F031F9094878
:10029000FA793B68012101FA03F319461346DB00A2
:1002A00013449B000344103359600837BD4680BD9A
:1002B000880F00000060004080B582B000AF0346A8
:1002C0003960FB71FB79052B02D83B680F2B04D9F1
:1002D0000A4840F20B2100F00BF90948FA793B6813
:1002E000012101FA03F319461346DB0013449B0076
:1002F0000344103319600837BD4680BD880F0000E5
:100300000060004080B582B000AF7860064B7A682C
:1003100013F83220022310461946FFF7A7FF0023E7
:1003200018460837BD4680BDF80F000080B582B082
:1003300000AF7860064B7A6813F83220022310462B
:100340001946FFF7B9FF002318460837BD4680BDA0
:10035000F80F000080B485B000AF78600123FB6027
:1003600002E0FB680133FB60FA687B689A42F8D3CD
:100370001437BD465DF8047B704700BF80B582B07E
:1003800000AF1048012100F0C5F90F48012100F02D
:10039000C1F900237B600DE00C4B7A6813F8322022
:1003A0000223104619460422002300F077FB7B68E5
:1003B00001337B607B68002BEEDD00231846083795
:1003C000BD4680BD1081020000620200F80F0000EF
:1003D00080B584B000AF786039600023FB600EE028
:1003E0000020FFF7A3FF7868FFF7B4FF0020FFF7B6
:1003F00089FF7868FFF7AEFFFB680133FB60FA689E
:100400003B689A42ECD31037BD4680BD80B582B0C0
:1004100000AF78607B68002B04D164200A21FFF7CD
:10042000D7FF0BE07B68012B04D1C8200721FFF721
:10043000CFFF03E096200E21FFF7CAFF0837BD4625
:1004400080BD00BF80B584B000AF78600220FFF7A8
:10045000DDFF0023FB600AE0FB689B007A68134421
:100460001B681846FFF7D2FFFB680133FB60FB688F
:10047000072BF1D91037BD4680BD00BF80B400AF57
:10048000044B1B685A1C034B1A60BD465DF8047B85
:10049000704700BF8C000020B0B588B000AFFFF7F8
:1004A000DFFE00F00DFD0F4800F090F902460E4B04
:1004B000A3FB02139B091846FFF7B0FE0346002B6F
:1004C00000D0FEE7FFF75AFF084B3C461D460FCD14
:1004D0000FC495E80F0084E80F003B461846FFF76D
:1004E000B1FFFAE720000400D34D6210D80F0000DE
:1004F00080B483B000AF78603960FEE780B487B025
:1005000000AFF860B9607A60FB6803F10473DA0049
:10051000BB6813449B007B617B697A681A601C3757
:10052000BD465DF8047B704780B586B000AF78604B
:100530007B68002B03D07B68B3F5004F03D90A48D2
:10054000BB21FFF7D5FF7B683B613B69B3FA83F3BF
:10055000FB60FB68DBB2C3F11F037B617B6918465C
:100560001837BD4680BD00BF0010000080B483B0C6
:1005700000AF1A4B5B6903F4E063B3F5007F14D05E
:10058000B3F5007F05D8002B15D0B3F5807F0FD0D1
:100590001AE0B3F5C06F14D0B3F5E06F0ED0B3F529
:1005A000407F11D10E4B7B6011E00E4B7B600EE063
:1005B0000D4B7B600BE00D4B7B6008E00C4B7B60D0
:1005C00005E00C4B7B6002E000237B6000BF7B6892
:1005D00018460C37BD465DF8047B704700800C4020
:1005E00040420F00C0CF6A00C0D8A700809FD5004E
:1005F000406F4001003FAB0180B582B000AF0F48B3
:1006000000F0B8F90346FB70FB78072B05D0082BE8
:1006100007D100F04DFB78600BE0FFF7A7FF786093
:1006200007E007484FF4CA71FFF762FF00237B60C1
:1006300000BF7B6818460837BD4680BD040018001F
:100640000010000080B584B000AF78607B68002B9C
:1006500007D07B68012B04D01F4840F2AB11FFF795
:1006600047FF1E4B9A6A7B685B0022FA03F303F094
:100670000303032B28D801A252F823F0A906000097
:100680008D060000950600009D06000000F08EFB20
:10069000F8601CE000F09EFBF86018E000F0EEFA55
:1006A00003465B08FB6012E00C4B9A6A7B680433DC
:1006B0009B0022FA03F3002B03D000F081FBF860CB
:1006C00005E00023FB6002E00023FB6000BFFB6845
:1006D00018461037BD4680BD0010000000800C4059
:1006E00080B483B000AF7860094B5B6D03F0010309
:1006F000002B00D006E000BF054B1A6D7B6813404D
:10070000002BF9D10C37BD465DF8047B704700BF64
:1007100000800C4080B586B000AF78600B46FB705F
:1007200000233B617B681B0A03F00F03013B052B91
:1007300024D801A252F823F0510700005707000007
:100740005D070000630700006D07000077070000E9
:10075000174B7B6118E0174B7B6115E0164B7B61F3
:1007600012E0164B7B6101233B610DE0144B7B6172
:1007700010233B6108E0134B7B6105E0124840F217
:100780003E41FFF7B5FE10E07B681B0B03F01F0333
:10079000FB603B69002B02D03869FFF7A1FFFB78B3
:1007A0007869F9681A46FFF7A9FE1837BD4680BD7B
:1007B00008800C4044800C4040800C4058800C4025
:1007C00060800C4078800C400010000090B585B02F
:1007D00000AF78607B6803F47813B3F5402F67D0DF
:1007E000B3F5402F15D8B3F5802F3CD0B3F5802F4B
:1007F00005D8002B27D0B3F5003F28D0A9E0B3F5EA
:10080000002F39D0B3F5202F44D0B3F5C02F2ED010
:100810009FE0B3F5901F00F08280B3F5901F06D8DB
:10082000B3F5602F57D0B3F5801F6BD091E0B3F5CF
:10083000C01F00F08680B3F5D01F00F08680B3F5AE
:10084000A01F71D085E000F033FAF86089E000F075
:100850002FFAF860454B9B6803F00F03FA6822FA01
:1008600003F3FB607DE000F009FAF86079E0002016
:10087000FFF7E8FEF86074E00020FFF7E3FEF860A1
:100880003A4B9B6E03F0F0031B09FA6822FA03F35C
:10089000FB6066E00020FFF7D5FEF860334B9B6EEF
:1008A00003F470631B0AFA6822FA03F3FB6058E052
:1008B0000020FFF7C7FEF8602C4B9B6E03F44053FB
:1008C0001C0B1020FFF730FE03462344FA6822FA7F
:1008D00003F3FB6045E00020FFF7B4FEF860234B14
:1008E0009B6E03F440531B0BFA6822FA03F3FB6080
:1008F0001E4BDB6F03F007030133FA68B2FBF3F31F
:10090000FB602EE00020FFF79DFEF860174B9B6E0A
:1009100003F00303FA6822FA03F3FB6021E00120ED
:10092000FFF790FEF8601CE00120FFF78BFEF860F7
:100930000E4B1B6F03F00303FA6822FA03F3FB600C
:100940000FE0FFF759FEF8600BE0FFF70FFEF860CD
:1009500007E007484FF49D61FFF7CAFD0023FB60E5
:1009600000BFFB6818461437BD4690BD00800C40A0
:100970000010000080B584B000AF78600123FB73E5
:100980007B6803F00F03BB60BB68013B032B73D88C
:1009900001A252F823F000BFA9090000DF090000FE
:1009A0001B0A0000570A00003A4BDB6A03F470533D
:1009B000B3F5805F09D0B3F5005F03D0B3F5006FE6
:1009C00006D008E00223FB7308E00323FB7305E075
:1009D0000423FB7302E00523FB7300BF54E02D4B9F
:1009E0009B6A03F00303022B06D0032B07D0012BD5
:1009F00008D10323FB730FE00223FB730CE00623F3
:100A0000FB7309E0234B9B6A03F48033002B02D075
:100A10000923FB7300E000BF36E01E4B9B6A03F026
:100A20000C03082B06D00C2B07D0042B08D1032372
:100A3000FB730FE00223FB730CE00623FB7309E05A
:100A4000144B9B6A03F48013002B02D00923FB7321
:100A500000E000BF18E00F4B1B6803F08053002B31
:100A600003D0B3F1805F03D00EE00723FB7302E0F5
:100A70000823FB7300BF07E0074840F28751FFF7E8
:100A800037FD0023FB7300BFFB7B18461037BD46C4
:100A900080BD00BF00800C400010000090B585B004
:100AA00000AFB9607B600346FB731346BB73FB7BEF
:100AB000052B02D8BB680F2B03D94948CC21FFF77F
:100AC00017FDBB7B002B1FD07B68002B0ED0454849
:100AD000FA7BBB68012101FA03F319461346DB00D8
:100AE00013449B000344103319600DE03D48FA7B2A
:100AF000BB68012101FA03F319461346DB001344D6
:100B00009B00034410335960BB68072B1DD8354840
:100B1000FA7B344CF97B0B46DB000B449B002344EF
:100B20005968BB689B000F2404FA03F3DB431940A8
:100B3000BC7BBB689B0004FA03F319431346DB003C
:100B400013449B000344596024E02648FA7B254C5B
:100B5000F97B0B46DB000B449B00234408331968E8
:100B6000BB6803F18043083B9B000F2404FA03F3A6
:100B7000DB431940BC7BBB6803F18043083B9B000F
:100B800004FA03F319431346DB0013449B000344A8
:100B900008331960BB7B002B1FD17B68002B0ED064
:100BA0001048FA7BBB68012101FA03F3194613468A
:100BB000DB0013449B000344103319600DE0094827
:100BC000FA7BBB68012101FA03F319461346DB00E7
:100BD00013449B000344103359601437BD4690BD45
:100BE0005010000000600040074880470749084A4D
:100BF000084B9B1A40F30580043BC858D0503FF780
:100C0000FBAF054800470000A10D0000B410000034
:100C1000000000207000002055010000FEE7FEE704
:100C2000FEE7FEE7FEE7FEE7FEE7FEE7FEE7FEE79C
:100C3000FEE7FEE7FEE7FEE7FEE7FEE7FEE7FEE78C
:100C4000FEE7FEE7FEE7FEE7FEE7FEE7FEE7FEE77C
:100C5000FEE7FEE7FEE7FEE7FEE7FEE7FEE700BF92
:100C600080B400AF044BDB6C1B0EDBB21846BD46F4
:100C70005DF8047B704700BFB081E00F80B582B0A3
:100C800000AF00F015F87860074B5B6803F00F03C6
:100C90007A6822FA03F37B60044B7A681A607B68F7
:100CA00018460837BD4680BD00800C4090000020EB
:100CB00080B582B000AF2F4BDB6A03F47053B3F5FD
:100CC000805F0AD0B3F5005F03D0B3F5006F08D0A2
:100CD0000BE0294B1B687B6047E04FF400437B60CF
:100CE00043E0264B1B687B603FE0224BDB6803F44C
:100CF000E063B3F5007F1BD0B3F5007F05D8002B70
:100D000024D0B3F5807F16D02BE0B3F5806F09D0E7
:100D1000B3F5A06F03D0B3F5407F06D021E0184BA8
:100D20007B6021E0174B7B601EE0174B7B601BE074
:100D3000164B7B6018E0FFF793FF0346122B02D996
:100D4000134B7B6010E0134B7B600DE0FFF788FFD7
:100D50000346122B02D9104B7B6005E00F4B7B60E2
:100D600002E000237B6000BF00BF7B6818460837A5
:100D7000BD4680BD00800C40040000200000002023
:100D8000003FAB01406F4001809FD500C0D8A70055
:100D900040B56400C0CF6A00804F120040420F008F
:100DA00080B400AFBD465DF8047B704780B400AFEF
:100DB0004FF400431846BD465DF8047B704700BF02
:100DC00080B400AF4FF47A731846BD465DF8047BDB
:100DD000704700BF80B400AF034B1B681846BD4688
:100DE0005DF8047B704700BF0400002080B400AFB2
:100DF0002B4B2B4A526C42F040025A64294B294A31
:100E0000D2F8202142F00402C3F82021254B254AC4
:100E1000D2F8202122F4407242F48072C3F82021DB
:100E2000204B204A126D22F070421A651D4B1D4A5C
:100E3000126D42F080421A65194B10221A6200BFEF
:100E4000174BDB6A03F02003002BF9D0164BDB684D
:100E500003F08073002B1ED1134B134AD26842F06B
:100E60008072DA60114B124A1A60124B0F221A611B
:100E7000104B0222C3F8F0200E4B4FF48072C3F8DF
:100E800004234FF060430C4AC3F8B02F4FF0604387
:100E90000A4AC3F8802EBD465DF8047B704700BF48
:100EA00000800C4000600040F0ED00E0001000E029
:100EB000FF130140000004E055CEACC5090001005D
:100EC00080B582B000AF4FF07E637B607B681B68AB
:100ED000002B01D1002302E0FFF788FF0123184611
:100EE0000837BD4680BD00BF08B5074B044613B1A7
:100EF0000021AFF30080054B1868836A03B198475F
:100F0000204600F033F800BF00000000A4100000ED
:100F100070B50E4B0E4D0024ED1AAD101E46AC42BE
:100F200004D056F8242090470134F8E700F020F868
:100F3000084D094B0024ED1AAD101E46AC4204D0FA
:100F400056F8242090470134F8E770BD680000206F
:100F5000680000206C000020680000200244034666
:100F6000934202D003F8011BFAE77047FEE700BF87
:100F7000F8B500BFF8BC08BC9E467047F8B500BF86
:100F8000F8BC08BC9E467047433A5C53696C696381
:100F90006F6E4C6162735C53696D706C69636974E8
:100FA0007953747564696F5C76325C646576656CE0
:100FB0006F7065725C73646B735C65666D33325C15
:100FC00076322F656D6C69622F696E632F656D5F78
:100FD0006770696F2E6800000000000000000000CC
:100FE00001000000000000000100000000000000FF
:100FF00001000000010000000300000002000000EA
:10100000433A2F53696C69636F6E4C6162732F535F
:10101000696D706C696369747953747564696F2F55
:1010200076322F646576656C6F7065722F73646BB2
:10103000732F65666D33322F76322F656D6C696262
:101040002F7372632F656D5F636D752E63000000F3
:10105000433A2F53696C69636F6E4C6162732F530F
:10106000696D706C696369747953747564696F2F05
:1010700076322F646576656C6F7065722F73646B62
:10108000732F65666D33322F76322F656D6C696212
:101090002F7372632F656D5F6770696F2E63000039
:0C10A000430000000800002000000000D9
:0810AC00A8F0FF7F0100000025
:1010B4000048E8010080000000000000000000007B
:1010C400000000000000000000000000000000001C
:1010D4000000000000000000A0100000000000005C
:1010E40000000000000000000000000000000000FC
:1010F40000000000000000000000000000000000EC
:1011040000000000000000000000000000000000DB
:1011140000000000000000002501000001010000A3
:0400000300000BE905
:00000001FF
